:020000040800F2
:10000000002800201D0D0008550C0008610C000898
:10001000670C00086D0C0008730C0008000000005D
:10002000000000000000000000000000790C000843
:10003000850C000800000000910C00089D0C0008D1
:10004000650D0008650D0008650D0008650D0008C8
:10005000650D0008650D0008A90C0008650D000875
:10006000650D0008650D0008650D0008650D0008A8
:10007000650D0008650D0008650D0008650D000898
:10008000650D0008650D0008650D0008650D000888
:10009000650D0008650D0008650D0008650D000878
:1000A000650D0008650D0008650D0008650D000868
:1000B000650D0008650D000800000000650D0008D2
:1000C000650D00080000000000000000650D00083C
:1000D00000000000650D0008650D0008000000002C
:1000E000650D0008650D0008650D000800000000A2
:1000F0000000000000000000000000000000000000
:0C01000000000000000000005FF808F1A3
:10010C0010B5054C237833B9044B13B10448AFF345
:10011C0000800123237010BD74000020000000003B
:10012C00BC2F000808B5034B1BB103490348AFF3C0
:10013C00008008BD0000000078000020BC2F0008E3
:10014C0080F0004002E000BF81F0004142001FBF80
:10015C005FEA410392EA030F7FEA226C7FEA236C89
:10016C006AD04FEA1262D2EB1363C1BFD21841407E
:10017C0048404140B8BF5B42192B88BF704710F014
:10018C00004F40F4000020F07F4018BF404211F0B7
:10019C00004F41F4000121F07F4118BF494292EA1F
:1001AC00030F3FD0A2F1010241FA03FC10EB0C004B
:1001BC00C3F1200301FA03F100F0004302D54942D8
:1001CC0060EB4000B0F5000F13D3B0F1807F06D385
:1001DC0040084FEA310102F10102FE2A51D2B1F17D
:1001EC00004F40EBC25008BF20F0010040EA030072
:1001FC007047490040EB000010F4000FA2F101021F
:10020C00EDD1B0FA80FCACF1080CB2EB0C0200FAA8
:10021C000CF0AABF00EBC25052421843BCBFD040F6
:10022C001843704792F0000F81F4000106BF80F470
:10023C0000000132013BB5E74FEA41037FEA226C33
:10024C0018BF7FEA236C21D092EA030F04D092F0FE
:10025C00000F08BF0846704790EA010F1CBF002032
:10026C00704712F07F4F04D1400028BF40F000408F
:10027C00704712F100723CBF00F50000704700F0AF
:10028C00004343F0FE4040F4000070477FEA2262D6
:10029C0016BF08467FEA23630146420206BF5FEAA7
:1002AC00412390EA010F40F4800070474FF00003A7
:1002BC0004E000BF10F0004348BF40425FEA000C6E
:1002CC0008BF704743F0964301464FF000001CE016
:1002DC0050EA010208BF70474FF000030AE000BF6C
:1002EC0050EA010208BF704711F0004302D54042AA
:1002FC0061EB41015FEA010C02BF8446014600201C
:10030C0043F0B64308BFA3F18053A3F50003BCFA36
:10031C008CF2083AA3EBC25310DB01FA02FC6344E3
:10032C0000FA02FCC2F12002BCF1004F20FA02F2EA
:10033C0043EB020008BF20F00100704702F12002DD
:10034C0001FA02FCC2F1200250EA4C0021FA02F23E
:10035C0043EB020008BF20EADC7070474FF0FF0C43
:10036C001CEAD0521EBF1CEAD15392EA0C0F93EA3E
:10037C000C0F6FD01A4480EA010C400218BF5FEAE0
:10038C0041211ED04FF0006343EA501043EA511153
:10039C00A0FB01310CF00040B1F5000F3EBF49004D
:1003AC0041EAD3715B0040EA010062F17F02FD2A51
:1003BC001DD8B3F1004F40EBC25008BF20F0010034
:1003CC00704790F0000F0CF0004C08BF49024CEA4B
:1003DC00502040EA51207F3AC2BFD2F1FF0340EADD
:1003EC00C250704740F400004FF00003013A5DDC4E
:1003FC0012F1190FDCBF00F000407047C2F100028F
:10040C00410021FA02F1C2F1200200FA02FC5FEA7B
:10041C00310040F1000053EA4C0308BF20EADC70C5
:10042C00704792F0000F00F0004C02BF400010F437
:10043C00000F013AF9D040EA0C0093F0000F01F0E4
:10044C00004C02BF490011F4000F013BF9D041EA06
:10045C000C018FE70CEAD15392EA0C0F18BF93EA08
:10046C000C0F0AD030F0004C18BF31F0004CD8D132
:10047C0080EA010000F00040704790F0000F17BFB9
:10048C0090F0004F084691F0000F91F0004F14D0FF
:10049C0092EA0C0F01D142020FD193EA0C0F03D157
:1004AC004B0218BF084608D180EA010000F000405A
:1004BC0040F0FE4040F40000704740F0FE4040F435
:1004CC00400070474FF0FF0C1CEAD0521EBF1CEAD4
:1004DC00D15392EA0C0F93EA0C0F69D0A2EB0302F2
:1004EC0080EA010C49024FEA402037D04FF080538C
:1004FC0043EA111143EA10130CF000408B4238BF51
:10050C005B0042F17D024FF4000C8B4224BF5B1A5E
:10051C0040EA0C00B3EB510F24BFA3EB510340EAAC
:10052C005C00B3EB910F24BFA3EB910340EA9C005A
:10053C00B3EBD10F24BFA3EBD10340EADC001B01CA
:10054C0018BF5FEA1C1CE0D1FD2A3FF650AF8B426E
:10055C0040EBC25008BF20F0010070470CF0004C7B
:10056C004CEA50207F32C2BFD2F1FF0340EAC250A6
:10057C00704740F400004FF00003013A37E792F067
:10058C00000F00F0004C02BF400010F4000F013AC5
:10059C00F9D040EA0C0093F0000F01F0004C02BFC0
:1005AC00490011F4000F013BF9D041EA0C0195E729
:1005BC000CEAD15392EA0C0F08D142027FF47DAFC2
:1005CC0093EA0C0F7FF470AF084676E793EA0C0FB2
:1005DC0004D14B023FF44CAF08466EE730F0004CB0
:1005EC0018BF31F0004CCAD130F000427FF45CAF40
:1005FC0031F000437FF43CAF5FE700BF4FEA4002AD
:10060C00B2F1FE4F0FD34FF09E03B3EB12620DD934
:10061C004FEA002343F0004310F0004F23FA02F09E
:10062C0018BF404270474FF00000704712F1610F45
:10063C0001D1420205D110F0004008BF6FF000401C
:10064C0070474FF00000704780B584B000AF034690
:10065C000A46FB711346BB71BB791A464FF4807185
:10066C00384801F0B7FAFB7903F00103FB73FB7B0D
:10067C001A464FF48061334801F0ACFAFB795B0801
:10068C00DBB203F00103FB73FB7B1A4602212D48FE
:10069C0001F0A0FAFB799B08DBB203F00103FB73BA
:1006AC00FB7B1A460421274801F094FAFB79DB08FE
:1006BC00DBB203F00103FB73FB7B1A4608212148D4
:1006CC0001F088FAFB791B09DBB203F00103FB7321
:1006DC00FB7B1A4610211B4801F07CFAFB795B0965
:1006EC00DBB203F00103FB73FB7B1A462021154898
:1006FC0001F070FAFB799B09DBB203F00103FB7389
:10070C00FB7B1A4640210F4801F064FAFB79DB09A8
:10071C00FB73FB7B1A4680210A4801F05BFA01222D
:10072C004FF40071074801F055FA322000F078FBC5
:10073C0000224FF40071034801F04CFA00BF10374F
:10074C00BD4680BD0008014080B500AF00213820B7
:10075C00FFF77AFF00210C20FFF776FF002106201F
:10076C00FFF772FF00210120FFF76EFF00218020B0
:10077C00FFF76AFF00BF80BD80B582B000AF0346B3
:10078C00FB80164B1B68002B12D1144B01221A60F4
:10079C00134B00221A6000224FF48061114801F0C3
:1007AC0019FA01224FF400610E4801F013FA11E01E
:1007BC0001224FF480610B4801F00CFA00224FF437
:1007CC000061084801F006FA044B00221A60044B41
:1007DC0001221A6000BF0837BD4680BD9000002082
:1007EC0000000020000C014080B58CB000AF00F080
:1007FC00B5FA00F0BDF800F049F900F009F9002253
:10080C004FF40061534801F0E5F96D23BB82FFF70B
:10081C009BFF514B1B68012B08D100210120FFF7D6
:10082C0013FF00BF4C4B1B68002BFBD14B4800F057
:10083C00F1FB4FF0FF31494800F0C6FC474800F08F
:10084C00C9FD03461846FFF731FD0346BB62444918
:10085C00B86AFFF783FD034642491846FFF732FE9C
:10086C0003467B62642000F0DBFA3C4800F080FC1D
:10087C0000210120FFF7E8FE786AFFF7BFFE034670
:10088C003B62386AFFF716FD03461946786AFFF794
:10089C005BFC0346FB613449F869FFF75FFD0346D7
:1008AC001846FFF7ABFE0346BB613B463A6A2F493D
:1008BC00184601F06BFF0023FB620AE03A46FB6A24
:1008CC0013441B7801211846FFF7BEFEFB6A013367
:1008DC00FB623A46FB6A13441B78002BEED10121D4
:1008EC002E20FFF7B1FE3B46BA692049184601F0AD
:1008FC004DFF0023FB620AE03A46FB6A13441B7867
:10090C0001211846FFF7A0FEFB6A0133FB623A4651
:10091C00FB6A13441B78002BEED10023FB620BE027
:10092C0007F11402FB6A13441B7801211846FFF7E8
:10093C008BFEFB6A0133FB6207F11402FB6A134462
:10094C001B78002BECD10023FB624FF47A7000F083
:10095C0067FA5EE7000C014000000020A0000020B8
:10096C000000484300F07F4500401C46D42F00088F
:10097C0080B594B000AF07F1280328220021184657
:10098C0001F0FCFE07F1140300221A605A609A6011
:10099C00DA601A613B1D00221A605A609A60DA60B4
:1009AC000223BB620123BB631023FB6300237B6424
:1009BC0007F12803184601F03DF90346002B01D03E
:1009CC0000F0D0F80F237B610023BB610023FB6197
:1009DC0000233B6200237B6207F1140300211846BD
:1009EC0001F0A8FB0346002B01D000F0BBF802235A
:1009FC007B600023FB603B1D184601F023FD034682
:100A0C00002B01D000F0AEF800BF5037BD4680BDC2
:100A1C0080B584B000AF3B1D00221A605A609A600A
:100A2C00184B194A1A60174B00229A60154B012279
:100A3C001A73144B00221A75124B4FF46022DA61B0
:100A4C00104B00225A600F4B01221A610D4800F026
:100A5C0009FA0346002B01D000F084F800237B60D8
:100A6C000123BB600023FB603B1D1946054800F0C9
:100A7C00BDFC0346002B01D000F074F800BF10370A
:100A8C00BD4680BDA00000200024014080B586B08A
:100A9C0000AF07F1080300221A605A609A60DA600E
:100AAC002C4B9B692B4A43F004039361294B9B69A4
:100ABC0003F004037B607B68264B9B69254A43F05B
:100ACC0008039361234B9B6903F008033B603B686D
:100ADC00002240F2FE71204801F07CF801224FF414
:100AEC0040611E4801F076F840F2FE73BB600123B2
:100AFC00FB6000233B6102237B6107F1080319466D
:100B0C00154800F015FF0123BB60154BFB6000235B
:100B1C003B6107F108031946104800F009FF4FF438
:100B2C004063BB600123FB6000233B6102237B61BC
:100B3C0007F108031946094800F0FAFE00220021CB
:100B4C00062000F0BEFE062000F0D7FE00BF1837CE
:100B5C00BD4680BD0010024000080140000C014061
:100B6C000000111080B400AF72B6FEE780B485B0FF
:100B7C0000AF154B9B69144A43F001039361124B70
:100B8C009B6903F00103BB60BB680F4BDB690E4A2A
:100B9C0043F08053D3610C4BDB6903F080537B60D3
:100BAC007B680A4B5B68FB60FB6823F0E063FB60CF
:100BBC00FB6843F08063FB60044AFB68536000BF32
:100BCC001437BD4680BC7047001002400000014045
:100BDC0080B588B000AF786007F1100300221A606E
:100BEC005A609A60DA607B681B68144A934221D180
:100BFC00134B9B69124A43F400739361104B9B692E
:100C0C0003F40073FB60FB680D4B9B690C4A43F0CB
:100C1C00040393610A4B9B6903F00403BB60BB683C
:100C2C0001233B6103237B6107F11003194605483F
:100C3C0000F07EFE00BF2037BD4680BD0024014081
:100C4C00001002400008014080B400AF00BFBD4658
:100C5C0080BC704780B400AFFEE780B400AFFEE705
:100C6C0080B400AFFEE780B400AFFEE780B400AF05
:100C7C0000BFBD4680BC704780B400AF00BFBD460E
:100C8C0080BC704780B400AF00BFBD4680BC7047CD
:100C9C0080B500AF00F0A8F800BF80BD80B500AFF4
:100CAC00012000F0AFFF00BF80BD000080B584B014
:100CBC0000AF7860114B1B68002B02D10F4B104A10
:100CCC001A600E4B1B68FB600C4B1A687B68134454
:100CDC006A46934207D901F027FD02460C231360A4
:100CEC004FF0FF3306E0054B1A687B681344034A48
:100CFC001360FB6818461037BD4680BD9400002079
:100D0C00D800002080B400AF00BFBD4680BC704747
:100D1C000C480D490D4A002302E0D458C45004334A
:100D2C00C4188C42F9D30A4A0A4C002301E0136020
:100D3C000432A242FBD3FFF7E5FF01F0FBFCFFF707
:100D4C0053FD704700000020740000205430000850
:100D5C0074000020D8000020FEE7000080B500AF32
:100D6C00084B1B68074A43F010031360032000F084
:100D7C009DFD002000F008F8FFF7F8FE0023184650
:100D8C0080BD00BF0020024080B582B000AF78600B
:100D9C00124B1A68124B1B7819464FF47A73B3FB3B
:100DAC00F1F3B2FBF3F3184600F0B5FD0346002B4C
:100DBC0001D001230EE07B680F2B0AD80022796842
:100DCC004FF0FF3000F07DFD064A7B681360002376
:100DDC0000E0012318460837BD4680BD0400002002
:100DEC000C0000200800002080B400AF054B1B78DD
:100DFC001A46054B1B681344034A136000BFBD46DB
:100E0C0080BC70470C000020D000002080B400AFE4
:100E1C00024B1B681846BD4680BC7047D0000020B2
:100E2C0080B584B000AF7860FFF7F0FFB8607B68E6
:100E3C00FB60FB68B3F1FF3F05D0094B1B781A46EA
:100E4C00FB681344FB6000BFFFF7E0FF0246BB6882
:100E5C00D31AFA689A42F7D800BF1037BD4680BD46
:100E6C000C00002080B586B000AF78600023FB75C5
:100E7C0000233B610023BB600023FB607B68002BDD
:100E8C0001D10123BEE07B689B68002B7B689B6AC9
:100E9C00002B09D17B680022DA627B68002283F880
:100EAC0024207868FFF794FE786800F0F1FB034685
:100EBC00FB757B689B6A03F01003002B40F0998054
:100ECC00FB7D002B40F095807B689B6A23F4885354
:100EDC0023F0020343F002027B689A627B685A6833
:100EEC007B68DB691A437B681B7B5B001343BA6826
:100EFC001343BB607B689B68B3F5807F03D07B6832
:100F0C009B68012B02D14FF4807300E000233A69F7
:100F1C0013433B617B681B7D012B19D17B681B7BC9
:100F2C00002B09D17B689B69013B5A033B69134336
:100F3C0043F400633B610BE07B689B6A43F0200247
:100F4C007B689A627B68DB6A43F001027B68DA6239
:100F5C007B681B685B6823F469417B681B683A6992
:100F6C000A435A607B681B689A68284B13407A685E
:100F7C001268B9680B4393607B689B68B3F5807FFC
:100F8C0003D07B689B68012B04D17B681B69013BF8
:100F9C001B05FB607B681B68DB6A23F470017B68B4
:100FAC001B68FA680A43DA627B681B689A68184BFC
:100FBC001340BA689A420BD17B680022DA627B68D4
:100FCC009B6A23F0030343F001027B689A6218E0EA
:100FDC007B689B6A23F0120343F010027B689A62D1
:100FEC007B68DB6A43F001027B68DA620123FB75E4
:100FFC0007E07B689B6A43F010027B689A620123CE
:10100C00FB75FB7D18461837BD4680BDFDF7E1FF2B
:10101C00FE0E1FFF80B584B000AF78600023FB7319
:10102C007B6893F82430012B01D1022398E07B6874
:10103C00012283F82420786800F0D0FA0346FB7371
:10104C00FB7B002B40F087807B689B6A23F440730A
:10105C0023F0010343F480727B689A627B681B68FF
:10106C00414A934205D1414B5B6803F47023002B3A
:10107C0015D17B689B6A23F480127B689A627B682B
:10108C001B685B6803F48063002B26D07B689B6A2B
:10109C0023F4405343F480527B689A621DE07B68D2
:1010AC009B6A43F480127B689A627B681B682F4AA8
:1010BC00934204D07B681B682B4A93420DD12B4B77
:1010CC005B6803F48063002B07D07B689B6A23F476
:1010DC00405343F480527B689A627B689B6A03F4AA
:1010EC008053002B06D07B68DB6A23F006027B68FA
:1010FC00DA6202E07B680022DA627B68002283F805
:10110C0024207B681B686FF002021A607B681B68E6
:10111C009B6803F46023B3F5602F13D17B681B68C5
:10112C00114A934205D1114B5B6803F47023002BD9
:10113C0008D17B681B689A687B681B6842F4A00224
:10114C009A600CE07B681B689A687B681B6842F4A9
:10115C0080129A6003E07B68002283F82420FB7BDA
:10116C0018461037BD4680BD0028014000240140C0
:10117C0080B584B000AF78600023FB737B6893F874
:10118C002430012B01D102231AE07B68012283F861
:10119C002420786800F07CFA0346FB73FB7B002B61
:1011AC0009D17B689B6A23F4885323F0010343F035
:1011BC0001027B689A627B68002283F82420FB7B07
:1011CC0018461037BD4680BD90B587B000AF78602B
:1011DC00396000237B610023FB6000233B61FFF738
:1011EC0015FE78617B681B689B6803F48073002B89
:1011FC000BD07B689B6A43F020027B689A627B6809
:10120C00002283F824200123D3E07B681B685B68F1
:10121C0003F48073002B31D17B681B68DB6A03F409
:10122C007003002B2AD121E03B68B3F1FF3F1DD0A6
:10123C003B68002B07D0FFF7E9FD02467B69D31A08
:10124C003A689A4212D27B681B681B6803F002034F
:10125C00002B0BD17B689B6A43F004027B689A627B
:10126C007B68002283F824200323A2E07B681B68A0
:10127C001B6803F00203002BD6D070E04F4B1C68A8
:10128C00022001F095F90346B4FBF3F27B681B686E
:10129C0019694B4B0B40002B18D17B681B68D96824
:1012AC00484B0B40002B11D17B681B681969464BCE
:1012BC000B40002B08D17B681B68D968434B0B4053
:1012CC00002B01D1142320E029231EE07B681B682E
:1012DC0019693D4B0B40002B06D17B681B68D96804
:1012EC003A4B0B40002B0DD07B681B681969384BAF
:1012FC000B40002B08D17B681B68D968344B0B4022
:10130C00002B01D1542300E0FC2302FB03F33B61CF
:10131C0021E03B68B3F1FF3F1AD03B68002B07D0AC
:10132C00FFF774FD02467B69D31A3A689A420FD2D2
:10133C00FB683A699A420BD97B689B6A43F00402BA
:10134C007B689A627B68002283F82420032330E0B8
:10135C00FB680133FB60FB683A699A42D9D87B6819
:10136C001B686FF012021A607B689B6A43F4007270
:10137C007B689A627B681B689B6803F46023B3F5F7
:10138C00602F15D17B681B7B002B11D17B689B6A6E
:10139C0023F480727B689A627B689B6A03F48053A7
:1013AC00002B05D17B689B6A43F001027B689A6233
:1013BC00002318461C37BD4690BD00BF040000201A
:1013CC0024499224244992009224491292244900DF
:1013DC004992240080B483B000AF78607B681B68AE
:1013EC00DB6C18460C37BD4680BC704780B485B0AA
:1013FC0000AF786039600023FB730023BB607B680F
:10140C0093F82430012B01D10223DCE07B6801220C
:10141C0083F824203B685B68062B1CD87B681B6810
:10142C00596B3B685A6813469B001344053B1F22BB
:10143C0002FA03F3DB4319403B6818683B685A68AF
:10144C0013469B001344053B00FA03F27B681B68B0
:10145C000A435A633CE03B685B680C2B1CD87B68E6
:10146C001B68196B3B685A6813469B001344233B5B
:10147C001F2202FA03F3DB4319403B6818683B68F0
:10148C005A6813469B001344233B00FA03F27B6813
:10149C001B680A431A631BE07B681B68D96A3B68AC
:1014AC005A6813469B001344413B1F2202FA03F374
:1014BC00DB4319403B6818683B685A6813469B002D
:1014CC001344413B00FA03F27B681B680A43DA625F
:1014DC003B681B68092B1CD97B681B68D9683B6867
:1014EC001A6813465B0013441E3B072202FA03F3EF
:1014FC00DB4319403B6898683B681A6813465B00ED
:10150C0013441E3B00FA03F27B681B680A43DA6043
:10151C0019E07B681B6819693B681A6813465B0005
:10152C001344072202FA03F3DB4319403B68986823
:10153C003B681A6813465B00134400FA03F27B689D
:10154C001B680A431A613B681B68102B03D03B686D
:10155C001B68112B32D17B681B681D4A934225D125
:10156C007B681B689B6803F40003002B26D17B6807
:10157C001B689A687B681B6842F400029A603B689F
:10158C001B68102B1AD1134B1B68134AA2FB0323A5
:10159C009A0C13469B0013445B00BB6002E0BB68D3
:1015AC00013BBB60BB68002BF9D107E07B689B6AF1
:1015BC0043F020027B689A620123FB737B68002254
:1015CC0083F82420FB7B18461437BD4680BC70473B
:1015DC00002401400400002083DE1B4380B584B04E
:1015EC0000AF78600023FB600023BB607B681B6846
:1015FC009B6803F00103012B40D07B681B689A6841
:10160C007B681B6842F001029A601F4B1B681F4AE3
:10161C00A2FB03239B0CBB6002E0BB68013BBB60DD
:10162C00BB68002BF9D1FFF7F1FBF8601FE0FFF767
:10163C00EDFB0246FB68D31A022B18D97B681B689A
:10164C009B6803F00103012B11D07B689B6A43F06C
:10165C0010027B689A627B68DB6A43F001027B684C
:10166C00DA627B68002283F82420012307E07B6880
:10167C001B689B6803F00103012BD8D1002318468B
:10168C001037BD4680BD00BF0400002083DE1B4325
:10169C0080B584B000AF78600023FB607B681B686A
:1016AC009B6803F00103012B2ED17B681B689A68A1
:1016BC007B681B6822F001029A60FFF7A7FBF860B9
:1016CC001BE0FFF7A3FB0246FB68D31A022B14D9CD
:1016DC007B681B689B6803F00103012B0DD17B68B1
:1016EC009B6A43F010027B689A627B68DB6A43F06A
:1016FC0001027B68DA62012307E07B681B689B6848
:10170C0003F00103012BDCD0002318461037BD4633
:10171C0080BD000080B485B000AF78607B6803F0BA
:10172C000703FB600C4BDB68BB60BA684FF6FF032A
:10173C001340BB60FB681A02BB68134343F0BF63E2
:10174C0043F40033BB60044ABB68D36000BF14375A
:10175C00BD4680BC704700BF00ED00E080B400AF18
:10176C00044BDB681B0A03F007031846BD4680BC1C
:10177C00704700BF00ED00E080B483B000AF0346BB
:10178C00FB7197F90730002B0BDBFB7903F01F0281
:10179C00064997F907305B09012000FA02F241F87B
:1017AC00232000BF0C37BD4680BC704700E100E031
:1017BC0080B483B000AF03463960FB7197F90730F2
:1017CC00002B0ADB3B68DAB20C4997F9073012019F
:1017DC00D2B20B4483F800230AE03B68DAB2084922
:1017EC00FB7903F00F03043B1201D2B20B441A76BF
:1017FC0000BF0C37BD4680BC704700BF00E100E065
:10180C0000ED00E080B489B000AFF860B9607A6098
:10181C00FB6803F00703FB61FB69C3F10703042BAF
:10182C0028BF0423BB61FB690433062B02D9FB6977
:10183C00033B00E000237B614FF0FF32BB6902FAEF
:10184C0003F3DA43BB681A407B699A404FF0FF31CF
:10185C007B6901FA03F3D9437B680B4013431846A9
:10186C002437BD4680BC704780B582B000AF78602D
:10187C007B68013BB3F1807F01D301230FE00A4A5F
:10188C007B68013B53600F214FF0FF30FFF790FF57
:10189C00054B00229A60044B07221A60002318465D
:1018AC000837BD4680BD00BF10E000E080B582B0B7
:1018BC0000AF78607868FFF72DFF00BF0837BD4692
:1018CC0080BD80B586B000AF0346B9607A60FB730B
:1018DC0000237B61FFF742FF78617A68B968786909
:1018EC00FFF790FF024697F90F3011461846FFF7A5
:1018FC005FFF00BF1837BD4680BD80B582B000AF1A
:10190C000346FB7197F907301846FFF735FF00BF08
:10191C000837BD4680BD80B582B000AF786078686E
:10192C00FFF7A2FF034618460837BD4680BD0000EE
:10193C0080B48BB000AF7860396000237B620023E9
:10194C003B6221E101227B6A02FA03F3FB613B68F3
:10195C001B68FA691340BB61BA69FB699A4240F093
:10196C0010813B685B68122B34D0122B0DD8022BE4
:10197C002BD0022B04D8002B31D0012B1CD048E0EB
:10198C00032B43D0112B1BD043E0864A934226D025
:10199C00844A934206D8844A934220D0834A934285
:1019AC001DD036E0824A934219D0824A934216D017
:1019BC00814A934213D02CE03B68DB683B6228E001
:1019CC003B68DB6804333B6223E03B68DB6808332D
:1019DC003B621EE03B68DB680C333B6219E03B6802
:1019EC009B68002B02D104233B6212E03B689B688E
:1019FC00012B05D108233B627B68FA691A6108E068
:101A0C0008233B627B68FA695A6102E000233B625F
:101A1C0000BFBB69FF2B01D87B6801E07B680433F6
:101A2C007B61BB69FF2B02D87B6A9B0002E07B6A5F
:101A3C00083B9B003B617B691A680F213B6901FAEB
:101A4C0003F3DB431A40396A3B6901FA03F31A4387
:101A5C007B691A603B685B6803F08053002B00F0D5
:101A6C009080564B9B69554A43F001039361534B4D
:101A7C009B6903F00103BB60BB68514A7B6A9B08FE
:101A8C00023352F82330FB607B6A03F003039B00A4
:101A9C000F2202FA03F3DB43FA681340FB607B6806
:101AAC00484A93420DD07B68474A934207D07B68E3
:101ABC00464A934201D1022304E0032302E00123AE
:101ACC0000E000237A6A02F0030292009340FA6865
:101ADC001343FB603A497B6A9B080233FA6841F86E
:101AEC0023203B685B6803F48033002B06D0384B13
:101AFC001A683749BB6913430B6006E0344B1A680C
:101B0C00BB69DB43324913400B603B685B6803F4F1
:101B1C000033002B06D02E4B5A682D49BB6913435A
:101B2C004B6006E02A4B5A68BB69DB4328491340DB
:101B3C004B603B685B6803F48013002B06D0244B8E
:101B4C009A682349BB6913438B6006E0204B9A6863
:101B5C00BB69DB431E4913408B603B685B6803F435
:101B6C000013002B06D01A4BDA681949BB691343D2
:101B7C00CB6006E0164BDA68BB69DB4314491340B3
:101B8C00CB607B6A01337B623B681A687B6A22FA02
:101B9C0003F3002B7FF4D6AE00BF2C37BD4680BCC0
:101BAC00704700BF0000211000001110000012103F
:101BBC000000311000003210000022100010024012
:101BCC000000014000080140000C014000100140E1
:101BDC000004014080B483B000AF78600B467B807A
:101BEC0013467B707B78002B03D07A887B681A6154
:101BFC0003E07B881A047B681A6100BF0C37BD4672
:101C0C0080BC704780B582B000AF0346FB80084BA8
:101C1C005A69FB881340002B06D0054AFB88536198
:101C2C00FB881846FEF7A8FD00BF0837BD4680BDEF
:101C3C000004014080B586B000AF78607B68002B53
:101C4C0001D101236CE27B681B6803F00103002BBC
:101C5C0000F08780924B5B6803F00C03042B0CD0D4
:101C6C008F4B5B6803F00C03082B12D18C4B5B6819
:101C7C0003F48033B3F5803F0BD1894B1B6803F41D
:101C8C000033002B6CD07B685B68002B68D1012380
:101C9C0046E27B685B68B3F5803F06D1804B1B68DE
:101CAC007F4A43F4803313602EE07B685B68002B23
:101CBC000CD17B4B1B687A4A23F480331360784B2E
:101CCC001B68774A23F4802313601DE07B685B68F4
:101CDC00B3F5A02F0CD1724B1B68714A43F48023CF
:101CEC0013606F4B1B686E4A43F4803313600BE038
:101CFC006B4B1B686A4A23F480331360684B1B6878
:101D0C00674A23F4802313607B685B68002B13D035
:101D1C00FFF77CF8386108E0FFF778F802463B697A
:101D2C00D31A642B01D90323FAE15D4B1B6803F42E
:101D3C000033002BF0D014E0FFF768F8386108E0AE
:101D4C00FFF764F802463B69D31A642B01D90323CD
:101D5C00E6E1534B1B6803F40033002BF0D100E099
:101D6C0000BF7B681B6803F00203002B63D04C4B55
:101D7C005B6803F00C03002B0BD0494B5B6803F042
:101D8C000C03082B1CD1464B5B6803F48033002BEF
:101D9C0016D1434B1B6803F00203002B05D07B6864
:101DAC001B69012B01D00123BAE13D4B1B6823F0C9
:101DBC00F8027B685B69DB00394913430B603AE03E
:101DCC007B681B69002B20D0364B01221A60FFF771
:101DDC001DF8386108E0FFF719F802463B69D31A81
:101DEC00022B01D903239BE12D4B1B6803F002034B
:101DFC00002BF0D02A4B1B6823F0F8027B685B6940
:101E0C00DB00274913430B6015E0264B00221A60B8
:101E1C00FEF7FCFF386108E0FEF7F8FF02463B696D
:101E2C00D31A022B01D903237AE11D4B1B6803F053
:101E3C000203002BF0D17B681B6803F00803002B16
:101E4C003AD07B689B69002B19D0174B01221A6082
:101E5C00FEF7DCFF386108E0FEF7D8FF02463B696D
:101E6C00D31A022B01D903235AE10D4B5B6A03F001
:101E7C000203002BF0D0012000F0C6FA1CE00A4B44
:101E8C0000221A60FEF7C2FF38610FE0FEF7BEFFBA
:101E9C0002463B69D31A022B08D9032340E100BF49
:101EAC000010024000004242800442429E4B5B6A9A
:101EBC0003F00203002BE9D17B681B6803F00403D9
:101ECC00002B00F0A6800023FB75974BDB6903F019
:101EDC008053002B0DD1944BDB69934A43F0805314
:101EEC00D361914BDB6903F08053BB60BB6801236A
:101EFC00FB758E4B1B6803F48073002B18D18B4B36
:101F0C001B688A4A43F480731360FEF77FFF3861C5
:101F1C0008E0FEF77BFF02463B69D31A642B01D91C
:101F2C000323FDE0814B1B6803F48073002BF0D07E
:101F3C007B68DB68012B06D17B4B1B6A7A4A43F02A
:101F4C00010313622DE07B68DB68002B0CD1764B10
:101F5C001B6A754A23F001031362734B1B6A724AA6
:101F6C0023F0040313621CE07B68DB68052B0CD1A7
:101F7C006D4B1B6A6C4A43F0040313626A4B1B6A79
:101F8C00694A43F0010313620BE0674B1B6A664A14
:101F9C0023F001031362644B1B6A634A23F00403AE
:101FAC0013627B68DB68002B15D0FEF72FFF3861BE
:101FBC000AE0FEF72BFF02463B69D31A41F2883246
:101FCC00934201D90323ABE0574B1B6A03F0020386
:101FDC00002BEED014E0FEF719FF38610AE0FEF793
:101FEC0015FF02463B69D31A41F28832934201D95C
:101FFC00032395E04C4B1B6A03F00203002BEED13C
:10200C00FB7D012B05D1484BDB69474A23F08053FC
:10201C00D3617B68DB69002B00F08180424B5B68ED
:10202C0003F00C03082B61D07B68DB69022B46D1D3
:10203C003F4B00221A60FEF7E9FE386108E0FEF71C
:10204C00E5FE02463B69D31A022B01D9032367E054
:10205C00354B1B6803F00073002BF0D17B681B6AB7
:10206C00B3F5803F08D1304B5B6823F400327B68BA
:10207C009B682D4913434B602B4B5B6823F4741204
:10208C007B68196A7B685B6A0B43274913434B6077
:10209C00274B01221A60FEF7B9FE386108E0FEF703
:1020AC00B5FE02463B69D31A022B01D9032337E054
:1020BC001D4B1B6803F00073002BF0D02FE01C4B62
:1020CC0000221A60FEF7A2FE386108E0FEF79EFEC1
:1020DC0002463B69D31A022B01D9032320E0124B91
:1020EC001B6803F00073002BF0D118E07B68DB69F0
:1020FC00012B01D1012313E00B4B5B68FB60FB68E8
:10210C0003F480327B681B6A9A4206D1FB6803F4A5
:10211C0070127B685B6A9A4201D0012300E00023B5
:10212C0018461837BD4680BD0010024000700040B4
:10213C006000424280B584B000AF786039607B6843
:10214C00002B01D10123D0E06A4B1B6803F007037D
:10215C003A689A4210D9674B1B6823F0070265490D
:10216C003B6813430B60634B1B6803F007033A682F
:10217C009A4201D00123B8E07B681B6803F002038C
:10218C00002B20D07B681B6803F00403002B05D0C8
:10219C00594B5B68584A43F4E06353607B681B6897
:1021AC0003F00803002B05D0534B5B68524A43F4F1
:1021BC0060535360504B5B6823F0F0027B689B6864
:1021CC004D4913434B607B681B6803F00103002BE4
:1021DC0040D07B685B68012B07D1474B1B6803F42D
:1021EC000033002B15D101237FE07B685B68022B49
:1021FC0007D1414B1B6803F00073002B09D101235D
:10220C0073E03D4B1B6803F00203002B01D101234B
:10221C006BE0394B5B6823F003027B685B683649E3
:10222C0013434B60FEF7F2FDF8600AE0FEF7EEFD9B
:10223C000246FB68D31A41F28832934201D9032338
:10224C0053E02D4B5B6803F00C027B685B689B00D2
:10225C009A42EBD1274B1B6803F007033A689A426A
:10226C0010D2244B1B6823F0070222493B6813430E
:10227C000B60204B1B6803F007033A689A4201D0AD
:10228C00012332E07B681B6803F00403002B08D0A9
:10229C00194B5B6823F4E0627B68DB6816491343D7
:1022AC004B607B681B6803F00803002B09D0124BB2
:1022BC005B6823F460527B681B69DB000E49134397
:1022CC004B6000F021F801460B4B5B681B0903F0D7
:1022DC000F030A4AD35C21FA03F3094A1360094B32
:1022EC001B681846FEF750FD002318461037BD46F4
:1022FC0080BD00BF002002400010024000300008EA
:10230C00040000200800002090B48AB000AF2A4BD3
:10231C003C1D0FCB84E80F00284B1B883B8000230F
:10232C00FB610023BB6100237B6200237B610023E4
:10233C003B62234B5B68FB61FB6903F00C03042BD2
:10234C0002D0082B03D02DE01E4B3B622DE0FB6925
:10235C009B0C03F00F0307F12802134413F8243CE1
:10236C007B61FB6903F48033002B13D0144B5B6847
:10237C005B0C03F0010307F12802134413F8283C0B
:10238C00BB617B690F4A02FB03F2BB69B2FBF3F33F
:10239C007B6204E07B690C4A02FB03F37B627B6A81
:1023AC003B6202E0074B3B6200BF3B6A1846283792
:1023BC00BD4690BC704700BFD82F0008E82F00081E
:1023CC000010024000127A0000093D0080B400AFFA
:1023DC00024B1B681846BD4680BC704704000020A9
:1023EC0080B500AFFFF7F2FF0146054B5B68DB0AD7
:1023FC0003F00703034AD35C21FA03F3184680BDAC
:10240C00001002401030000880B485B000AF786036
:10241C000A4B1B680A4AA2FB03235B0A7A6802FB7D
:10242C0003F3FB6000BFFB685A1EFA60002BF9D166
:10243C0000BF1437BD4680BC704700BF04000020AD
:10244C00D34D621080B586B000AF786000233B613D
:10245C000023FB607B681B6803F00103002B7DD01D
:10246C000023FB754F4BDB6903F08053002B0DD120
:10247C004C4BDB694B4A43F08053D361494BDB69CE
:10248C0003F08053BB60BB680123FB75464B1B6894
:10249C0003F48073002B18D1434B1B68424A43F45E
:1024AC0080731360FEF7B2FC386108E0FEF7AEFCF7
:1024BC0002463B69D31A642B01D903236DE03A4BD6
:1024CC001B6803F48073002BF0D0364B1B6A03F4AB
:1024DC004073FB60FB68002B2ED07B685B6803F4B9
:1024EC004073FA689A4227D02E4B1B6A23F4407330
:1024FC00FB602E4B01221A602C4B00221A60294AD9
:10250C00FB681362FB6803F00103002B14D0FEF789
:10251C007DFC38610AE0FEF779FC02463B69D31A70
:10252C0041F28832934201D9032336E01D4B1B6ADA
:10253C0003F00203002BEED01A4B1B6A23F44072FB
:10254C007B685B68174913430B62FB7D012B05D13C
:10255C00144BDB69134A23F08053D3617B681B68EF
:10256C0003F00203002B08D00E4B5B6823F44042AF
:10257C007B689B680B4913434B607B681B6803F0BB
:10258C001003002B08D0074B5B6823F480027B6898
:10259C00DB68044913434B60002318461837BD46CB
:1025AC0080BD00BF00100240007000404004424259
:1025BC0090B58DB000AF7860554B07F10C040FCB84
:1025CC0084E80F00534B1B883B8100237B62002364
:1025DC00FB6200233B620023FB610023BB627B6830
:1025EC00022B7FD0102B02D0012B48D08BE04A4B12
:1025FC005B68FB61484B1B6803F08073002B7FD03A
:10260C00FB699B0C03F00F0307F13002134413F822
:10261C00243C3B62FB6903F48033002B18D03E4B07
:10262C005B685B0C03F0010307F13002134413F8F1
:10263C00283C7B62FB6903F48033002B0DD0374AB6
:10264C007B6AB2FBF3F23B6A02FB03F3FB6204E02E
:10265C003B6A334A02FB03F3FB622F4B5B6803F4C8
:10266C008003B3F5800F02D1FB6ABB6248E0FB6AC2
:10267C005B002C4AA2FB03235B08BB6240E0264BA9
:10268C001B6AFB61FB6903F44073B3F5807F08D1CF
:10269C00FB6903F00203002B03D04FF40043BB6231
:1026AC001FE0FB6903F44073B3F5007F09D11A4BAB
:1026BC005B6A03F00203002B03D049F64043BB6274
:1026CC000FE0FB6903F44073B3F5407F1AD1124B52
:1026DC001B6803F40033002B14D04FF22443BB626D
:1026EC0010E00FE0FFF77CFE02460B4B5B689B0B88
:1026FC0003F0030301335B00B2FBF3F3BB6202E0B4
:10270C0000BF00E000BFBB6A18463437BD4690BD21
:10271C00EC2F0008FC2F00080010024000127A0079
:10272C0000093D00ABAAAAAA014B1868704700BF6C
:10273C001000002070B500250C4E0D4CA41BA410ED
:10274C00A54209D100F034FC00250A4E0A4CA41B0A
:10275C00A410A54205D170BD56F825309847013517
:10276C00EEE756F8253098470135F2E74C30000873
:10277C004C3000084C30000850300008034602442E
:10278C00934200D1704703F8011BF9E70EB46FF0C8
:10279C00004100B59CB01DAB0290069007910491CE
:1027AC000848094953F8042B0591006802A90193C4
:1027BC0000F066F80022029B1A701CB05DF804EB66
:1027CC0003B07047100000200802FFFF2DE9F0470E
:1027DC008E6882469E420C469046994637D88A8926
:1027EC0012F4906F31D00223256809696F1A65695C
:1027FC0005EB450595FBF3F509F101033B449D42BF
:10280C0038BF1D46530530D5294600F037FB064628
:10281C0050B90C234FF0FF30CAF80030A38943F0B5
:10282C004003A381BDE8F0873A46216900F0B6FA6F
:10283C00A38923F4906343F08003A38126613E4473
:10284C0026604E466561ED1BA5604E4500D94E468F
:10285C0032464146206800F0ACFAA36800209B1B6E
:10286C00A36023681E442660DCE72A4600F060FB68
:10287C0006460028E2D12169504600F0B3FAC8E7B9
:10288C002DE9F04F1D468B899DB01F0680460C46E6
:10289C0016460FD50B696BB9402100F0EFFA20609A
:1028AC00206128B90C23C8F800304FF0FF30C8E085
:1028BC00402363610023099320238DF829303023B2
:1028CC004FF0010B8DF82A30039537463D4615F82D
:1028DC00013B0BB1252B3ED1B7EB060A0BD053466F
:1028EC00324621464046FFF771FF013000F0A480CC
:1028FC00099B534409933B78002B00F09D800023E7
:10290C004FF0FF32CDE90523049307938DF8533034
:10291C001A932F46052217F8011B504800F030FA85
:10292C00049BD0B9D90644BF20228DF853201A0736
:10293C0044BF2B228DF853202A782A2A15D02F46F3
:10294C0000200A25079A394611F8013B303B092B28
:10295C004DD9B8B10FE02F46B8E7404A3D46801A32
:10296C000BFA00F018430490D3E7039A111D126878
:10297C000391002A01DB079204E0524243F0020368
:10298C00079204933B782E2B0CD17B782A2B33D1D6
:10299C00039B02371A1D1B680392002BB8BF4FF024
:1029AC00FF3305932E4D03223978284600F0E8F9C1
:1029BC0038B14023401B03FA00F0049B013703435A
:1029CC0004933978062227487E1C8DF8281000F0D5
:1029DC00D7F9002838D0244B13BB039B073323F0C3
:1029EC00070308330393099B4B4409936DE705FBDD
:1029FC00023201200F46A6E700230A2519460137AB
:102A0C000593384610F8012B303A092A03D9002BCC
:102A1C00C8D00591C6E705FB012101230746F0E765
:102A2C0003AB00932246114B04A94046AFF3008040
:102A3C00B0F1FF3F8146D6D1A3895B063FF535AF98
:102A4C0009981DB0BDE8F08F03AB00932246074BED
:102A5C0004A9404600F082F8EAE700BF18300008ED
:102A6C001E3000082230000800000000D9270008A2
:102A7C002DE9F04791461F468A680B69064693423A
:102A8C00B8BF1346C9F8003091F843200C46DDF866
:102A9C00208012B10133C9F800302368990642BF77
:102AAC00D9F800300233C9F80030256815F0060556
:102ABC0007D104F1190AE368D9F800209B1AAB423C
:102ACC0029DC94F843302268003318BF01239206A6
:102ADC002ED404F1430239463046C047013021D090
:102AEC002368E56803F00603042B18BF0025D9F80A
:102AFC0000204FF0000908BFAD1AA368226908BF77
:102B0C0025EAE5759342C4BF9B1AED181A344D455E
:102B1C001AD1002008E00123524639463046C047FE
:102B2C00013003D14FF0FF30BDE8F0870135C2E72B
:102B3C003020E11881F843005A1C94F845102244C7
:102B4C00023382F84310C4E701232246394630464B
:102B5C00C0470130E6D009F10109D8E72DE9F0436F
:102B6C0001F1430C0C46097E85B06E2917460646CA
:102B7C0098460C9A00F0B38022D8632936D00AD834
:102B8C00002900F0B980582900F0838004F1420537
:102B9C0084F8421032E0642901D06929F6D120680A
:102BAC001368050603F104012AD51B681160002B7C
:102BBC0003DA2D225B4284F843206F480A2239E065
:102BCC00732900F09D8008D86F2920D07029DDD1A1
:102BDC00236843F02003236003E0752917D078297C
:102BEC00D4D17823654884F8453055E0136804F156
:102BFC004205191D1B68116084F8423001238CE0DA
:102C0C001B6810F0400F116018BF1BB2CFE71368A0
:102C1C002568181D1060280601D51B6802E068069F
:102C2C00FBD51B886F2914BF0A22082252480021A9
:102C3C0084F843106568002DA560C0F2958021686A
:102C4C0021F004012160002B3DD1002D40F08E803D
:102C5C006546082A0BD12368DB0708D5236962680F
:102C6C009A42DEBF302305F8013C05F1FF35ACEB91
:102C7C0005032361CDF800803B4603AA214630466C
:102C8C00FFF7F6FE01304DD14FF0FF3005B0BDE837
:102C9C00F083394884F84510136821681D1D1B68A2
:102CAC0015600A060BD5CA0744BF41F0200121600C
:102CBC001BB9226822F0200222601022B7E74D06D1
:102CCC0048BF9BB2EFE76546B3FBF2F102FB113351
:102CDC00C35C05F8013D0B460029F5D1B9E7136833
:102CEC002568181D6169106028061B6801D51960DC
:102CFC0002E06A06FBD51980002365462361B9E71B
:102D0C001368191D11601D6862680021284600F0C7
:102D1C0037F808B1401B606063682361002384F8B6
:102D2C004330A7E723692A4639463046C04701306D
:102D3C00AAD023689B0713D4E068039B9842B8BFC2
:102D4C001846A3E701234A4639463046C0470130AE
:102D5C009AD00135E368039A9B1AAB42F2DCEBE79D
:102D6C00002504F11909F5E7002BACD1037804F127
:102D7C00420584F842306CE7293000083A300008EC
:102D8C0010B5C9B202449042034601D1002303E0BE
:102D9C001C7801308C42F6D1184610BD10B5431E7C
:102DAC000A44914200D110BD11F8014B03F8014FB8
:102DBC00F7E7884210B501EB020307D8421E99428F
:102DCC000AD011F8014B02F8014FF8E78342F5D90C
:102DDC008118D21AD34200D110BD13F8014D01F85D
:102DEC00014DF7E738B50546002943D051F8043CAE
:102DFC000C1F002BB8BFE41800F0D0F81E4A136863
:102E0C00104633B9636014602846BDE8384000F0C2
:102E1C00C6B8A3420BD921686218934201BF1A6845
:102E2C005B685218226063600460EDE713465A68D1
:102E3C000AB1A242FAD919685818A0420BD12068DD
:102E4C000144581882421960DED11068526801445E
:102E5C0019605A60D8E702D90C232B60D4E720689C
:102E6C0021188A4201BF11685268091821606260FA
:102E7C005C60C9E738BD00BF9800002070B5CD1C60
:102E8C0025F0030508350C2D38BF0C25002D064602
:102E9C0001DBA94203D90C233360002070BD00F084
:102EAC007DF8214A1468214691B9204C23681BB93E
:102EBC00304600F063F820602946304600F05EF89A
:102ECC00431C24D10C233046336000F068F8E4E74F
:102EDC000B685B1B18D40B2B0FD90B60CC18CD5087
:102EEC00304600F05CF804F10B00231D20F00700C5
:102EFC00C31AD3D05A42E250D0E74B688C4216BF6B
:102F0C00636013600C46EBE70C464968CCE7C41CC5
:102F1C0024F00304A04205D0211A304600F02EF80C
:102F2C000130CFD02560DBE7980000209C0000200A
:102F3C00F8B5074614460E4621B9BDE8F8401146CF
:102F4C00FFF79CBF22B9FFF74DFF25462846F8BD79
:102F5C0000F026F8A0420FD221463846FFF78EFF2C
:102F6C0005460028F2D031462246FFF717FF3146BE
:102F7C003846FFF737FFE9E73546E7E738B5002372
:102F8C00054C054608462360FDF790FE431C02D114
:102F9C00236803B12B6038BDD40000207047704704
:102FAC0051F8043C181F002BBCBF0B58C0187047BD
:102FBC00F8B500BFF8BC08BC9E467047F8B500BF1A
:082FCC00F8BC08BC9E467047EA
:102FD4002575000002030405060708090A0B0C0DF9
:102FE4000E0F101001020000020304050607080971
:102FF4000A0B0C0D0E0F101001020000000000005F
:103004000000000001020304060708090000000094
:1030140001020304232D302B2000686C4C006566EC
:103024006745464700303132333435363738394115
:10303400424344454600303132333435363738392B
:0830440061626364656600002F
:04304C003101000846
:043050000D01000866
:10305400010000000024F400100000000100000042
:103064001400002000000000000000000000000028
:10307400000000000000000000000000000000004C
:10308400000000000000000000000000000000003C
:10309400000000000000000000000000000000002C
:1030A400000000000000000000000000000000001C
:1030B400000000000000000000000000000000000C
:0430C4000000000008
:0400000508000D1DC5
:00000001FF
